:100000000C9408010C94D8200C94B1200C94F61098
:100010000C94F6100C94F6100C9430010C943001F2
:100020000C9430010C9430010C9430010C9430018C
:100030000C9430010C9430010C9430010C9430017C
:100040000C9467200C9430010C9451240C942B24B4
:100050000C9430010C9430010C9430010C9430015C
:100060000C9430010C943001300B460BD30B4E0C2A
:100070009E0CF00C320D320D102A102A1E2AFD297A
:10008000072A072A172A172A2C2AF929452A452A36
:10009000452A452A0A2A00000000230026002900DC
:1000A0000000000800020100000304070000000037
:1000B0000000000000000000240027002A000102C8
:1000C00004081020408001020408102001020408E6
:1000D00010200404040404040404020202020202C4
:1000E00003030303030300000000250028002B0086
:1000F00053656E64696E67206D6573736167652013
:10010000746F20746F7069633A20000009121B2419
:100110002D363F48415A536C657E7719100B023DCE
:10012000342F265158434A757C676E323B2029167E
:100130001F040D7A7368615E574C452B2239300FCE
:10014000061D14636A7178474E555C646D767F4076
:1001500049525B2C253E3708011A137D746F66598E
:10016000504B42353C272E1118030A565F444D72FE
:100170007B60691E170C053A3328214F465D546B8E
:10018000627970070E151C232A31384148535A658D
:100190006C777E09001B122D243F3658514A437C50
:1001A000756E671019020B343D262F737A616857FC
:1001B0005E454C3B3229201F160D046A6378714E50
:1001C000475C55222B3039060F141D252C373E0174
:1001D00008131A6D647F7649405B523C352E271810
:1001E000110A03747D666F5059424B171E050C337C
:1001F0003A21285F564D447B7269600E071C152A10
:10020000233831464F545D626B707900A12F9D2FCA
:1002100011241FBECFEFD8E0DEBFCDBF13E0A0E0BA
:10022000B1E0ECEAF5E702C005900D92A432B10707
:10023000D9F728E0A4E2B3E001C01D92A430B207D0
:10024000E1F711E0C7E0D1E004C02197FE010E9470
:10025000E435C630D107C9F70E9450310C94C93A31
:100260000C940000CF93DF93FC01EB01AC85AF3F12
:1002700049F48EE791E09183808312821382148285
:10028000158214C0D0E3AD02D0011124A651BB4F9A
:1002900050968D919D910D90BC91A02D2EE731E04F
:1002A0003183208382839383A483B583CF01DF913D
:1002B000CF91089521E0FC0184858F3F09F420E06F
:1002C000822F08950895CF93DF931F92CDB7DEB7A5
:1002D000DC01ED91FC910288F389E02D41E050E0D2
:1002E000BE016F5F7F4F0995019719F4898190E0F6
:1002F00002C08FEF9FEF0F90DF91CF910895CF93C2
:10030000DF931F92CDB7DEB76983DC01ED91FC91DD
:100310000280F381E02D41E050E0BE016F5F7F4F2E
:1003200009950F90DF91CF91089540932804509341
:10033000290460932A0470932B040895DC011C9611
:100340008D919C911D97DC01ED91FC910084F185CC
:10035000E02D099481E00895DC019F962D913C9158
:10036000D0972630310559F41C968D919C911D979C
:10037000DC01ED91FC910484F585E02D09948FEF6B
:100380009FEF0895CF93DF931F92CDB7DEB7DC01C7
:10039000ED91FC910288F389E02D41E050E0BE012F
:1003A0006F5F7F4F0995019719F4898190E002C032
:1003B0008FEF9FEF0F90DF91CF910895FC0127A55C
:1003C00030A92630310519F483A994A9089580E055
:1003D00090E00895CF93DF931F92CDB7DEB7698386
:1003E000DC01ED91FC910280F381E02D41E050E0D1
:1003F000BE016F5F7F4F09950F90DF91CF910895F8
:10040000089580E090E00895CF93FC01C485C7FD76
:100410000CC00E94B00F80E3C802F0011124E65125
:10042000FB4F81E09281933009F080E0CF910895F5
:10043000CF93DF93FC01848587FD05C0EF010E9407
:10044000AD248FEF8C87DF91CF910895FC018485D7
:100450008F3F11F00C94342780E090E008950F93C3
:100460001F93CF93DF93EC01E881F9810084F1853C
:10047000E02D0995892B19F48FEF9FEF3BC0CC85B8
:100480000E94B00F0C2F0C2E000C110B80E3C80241
:10049000F0011124E651FB4F8281833011F0853049
:1004A00059F78C2F0E943427892B31F380E3809FEA
:1004B000F001819FF00D1124E651FB4F80A191A125
:1004C000892B71F080E3809FF001819FF00D112452
:1004D000E651FB4F068CF78DE02D808190E00AC03D
:1004E00080859185892B71F38C2F0E94851B892B28
:1004F00049F7C2CFDF91CF911F910F9108953F929D
:100500004F925F926F927F928F929F92AF92BF9223
:10051000CF92DF92EF92FF920F931F93CF93DF93CF
:10052000CDB7DEB72A970FB6F894DEBF0FBECDBFAA
:100530007C014B018A01DC01ED91FC910084F18585
:10054000E02D0995892B09F4BCC0F70134840E9481
:10055000B00FC32C032C000CDD08232D30E3230245
:10056000F0011124E651FB4F8281833029F0853060
:1005700019F080E090E0A9C0832D0E94342718165E
:100580001906BCF7801791070CF48C01A12CB12C33
:1005900080E38C9D90018D9D300D1124C901865101
:1005A0009B4F3C01A0E26A0E711CFC013896FA8751
:1005B000E9872C01FEE14F0E511C01151105A9F12F
:1005C000D3018D919C91892B29F1F3018081918137
:1005D0007801801791070CF47C01D2016D917C9118
:1005E000A701C4010E94D637F201808191818E0D4E
:1005F0009F1D91838083D3018D919C9111978E19BA
:100600009F098D939C938E0C9F1C0E191F09AE0C95
:10061000BF1CD3CFE985FA8580819181892BA9F20E
:10062000832D0E94851B892B81F680E38C9DF00130
:100630008D9DF00D1124E651FB4F80A191A1892BD6
:1006400009F042C080859185892BF1F5F6E0F3151C
:1006500024F0832D0E945A2731C08BE08C9DF0013D
:100660008D9DF00D1124EB5BF84F8085813031F5C5
:100670009085992319F1118210821382128292853A
:1006800091111CC082878FEF9FEFDC0189839A83D1
:10069000AB83BC833D828481958198878F83C12CF5
:1006A000D12CE12CF12C00E010E028E030E0AE018C
:1006B0004F5F5F4F68E482E00E94EE110E94B00F2E
:1006C00003C08FEF9FEF01C0C5012A960FB6F894C3
:1006D000DEBF0FBECDBFDF91CF911F910F91FF9075
:1006E000EF90DF90CF90BF90AF909F908F907F90D2
:1006F0006F905F904F903F9008952F923F924F924E
:100700005F926F927F928F929F92AF92BF92CF92A1
:10071000DF92EF92FF920F931F93CF93DF93CDB7AA
:10072000DEB767970FB6F894DEBF0FBECDBF4C01A2
:100730003B015A01DC011C968C911C9787FD0BC074
:10074000452B49F0ED91FC910688F789E02DC40115
:10075000099581110AC081E090E0D40113969C9321
:100760008E93129780E090E0A8C0F40134840E9438
:10077000B00FC32C032C000CDD08232D30E3230223
:10078000F0011124E651FB4F8281833009F08EC0C5
:1007900060E085E00E94062D60E082E00E94062D68
:1007A000B6E0B3151CF4E4E4E98B02C0F0E5F98B84
:1007B000212C8BE08C9D90018D9D300D1124C90161
:1007C0008B5B984F9C01285F3F4F3B8B2A8BDC0152
:1007D0001496BD8BAC8BFC013996FF8BEE8B2C01F4
:1007E000F6E04F0E511C37FC53C06114710409F43C
:1007F0004FC029E7A21625E0B20608F049C0AA8931
:10080000BB898C91813009F043C03982BC82AB82B4
:10081000EC89FD89808191819E878D87AE89BF8912
:100820008C9180FF15C0F201C080D1808091E107DA
:100830009091E207A091E307B091E4076CE4803463
:100840009341A105B10538F485E5C82ED12C03C02C
:10085000C988D22C65E460687501830120E130E02D
:10086000AE014F5F5F4F82E00E94EE11811103C025
:1008700080E090E002C082EF9FEF009761F00E965B
:1008800039F48091E607811103C00E94B00FABCF0D
:10089000C12CD12C01C0650161E085E00E94062DCC
:1008A00061E082E00E94062DC60102C080E090E077
:1008B000181619060CF04FCFC50167960FB6F894BD
:1008C000DEBF0FBECDBFDF91CF911F910F91FF9083
:1008D000EF90DF90CF90BF90AF909F908F907F90E0
:1008E0006F905F904F903F902F9008950F931F93BC
:1008F000CF93DF9300D000D000D0CDB7DEB72EE786
:1009000031E03A832983FB010281138124813581FF
:100910000B831C832D833E8320E030E0BE016F5F9C
:100920007F4F0E94C32726960FB6F894DEBF0FBEF6
:10093000CDBFDF91CF911F910F9108956F927F925C
:100940008F929F92AF92BF92CF92DF92EF92FF92DF
:100950000F931F93CF93DF93CDB7DEB72C970FB6CE
:10096000F894DEBF0FBECDBF5C01762E672E4A0124
:1009700019861A861B861C86E62FF72F20E080E05A
:1009800090E06AE03191332319F140ED430F4A3092
:1009900080F4689FA001699F500D1124CA01C0977F
:1009A000830F911D37FD9A958F3F910559F350F3B1
:1009B00013C03E3289F4233079F0A9E0B0E0AC0FE7
:1009C000BD1FA20FB11D8C932F5F80E090E0DACFA6
:1009D000233011F48C875AC060E085E00E94062D18
:1009E00060E082E00E94062D1092280410922904F3
:1009F00010922A0410922B04872D962D0E949C0E93
:100A0000813408F059C099279C012F5F3F4FC12CBA
:100A1000D12CE12CF12C00E010E0472D562D6AE49A
:100A200082E00E94EE1187FD47C00E945B206B01AF
:100A30007C018091280490912904A0912A04B0910E
:100A40002B04892B8A2B8B2B09F43FC061E085E0B6
:100A50000E94062D61E082E00E94062D809128040C
:100A600090912904A0912A04B0912B040097A1052C
:100A7000B105E1F189879A87AB87BC87109228047A
:100A80001092290410922A0410922B048EE791E010
:100A90009A83898389859A85AB85BC858B839C8362
:100AA000AD83BE83272D362DA401BE016F5F7F4F1E
:100AB000C5010E94C3271CC061E085E00E94062D8D
:100AC00061E082E00E94062D11C00E945B20DC01E3
:100AD000CB018C199D09AE09BF0980329E44A10546
:100AE000B10508F0B3CF0E94B00FA3CF80E090E033
:100AF0002C960FB6F894DEBF0FBECDBFDF91CF911D
:100B00001F910F91FF90EF90DF90CF90BF90AF902B
:100B10009F908F907F906F900895EF92FF920F9328
:100B20001F93CF93FA016430A9F128F4613061F08A
:100B30006230E9F0C4C0663009F46CC008F44DC0FE
:100B4000693009F467C0BBC0082E000C990B3097C0
:100B500009F455C02081211152C020E3289FF001E3
:100B6000299FF00D1124E651FB4F85E051C0082E5E
:100B7000000C990B309709F442C0208121113FC02D
:100B800020E3289FF001299FF00D1124E651FB4F2F
:100B900087E03EC0309709F492C0308137FD8FC0A6
:100BA00020E33203D0011124A651BB4F98E01296E6
:100BB0009C9330813203D0011124A651BB4F139670
:100BC0008C9331913203D0011124AA50BB4F80E1A4
:100BD00001900D928A95E1F772C0082E000C990BD6
:100BE000309769F0218127FD0AC020E3289FF0019A
:100BF000299FF00D1124E651FB4F83E009C020E34B
:100C0000289FF001299FF00D1124E651FB4F81E050
:100C1000828355C08F01C82F60E085E00E94062DB9
:100C200060E082E00E94062DF8018481958118160B
:100C3000190624F08C2F0E94AD2434C0EC2E0C2E0B
:100C4000000CFF0820E3C202F0011124E651FB4F23
:100C50002281233011F0253019F5F80140815181AE
:100C60006281738120E32E9DD0012F9DB00D112450
:100C7000FD01E651FB4F448355836683778391875B
:100C80008087C7304CF0AA50BB4F80E1F8013896FE
:100C900001900D928A95E1F78C2F0E94851B02C06E
:100CA0000E94810F61E085E00E94062D61E082E0F4
:100CB000CF911F910F91FF90EF900C94062DCF9143
:100CC0001F910F91FF90EF9008950F931F93CF9373
:100CD000DF93EB01833109F434C1E8F4863009F481
:100CE00076C190F4843009F0B1C18881082E000CDF
:100CF000990BAA0BBB0B8093280490932904A09313
:100D00002A04B0932B04A2C1893009F4BCC08131FC
:100D100009F412C19BC18A3259F020F48B3109F4D5
:100D200079C194C18C3259F0823309F475C08EC1F7
:100D30008881882309F48AC186E090E01FC08881F9
:100D4000813009F580912E0490912F048130910516
:100D500081F48091260490912704892B09F076C1B3
:100D600083E090E0909331048093300460E084E06D
:100D70004DC0039709F06AC188E090E09093310478
:100D80008093300463C1811161C180912E049091E0
:100D90002F048130910561F586E090E09093310455
:100DA000809330048091260490912704892BC1F010
:100DB00010921A0410921B0410921C0410921D042D
:100DC00010921E0410921F0410922004109221040D
:100DD00010922204109223041092240410922504ED
:100DE000C0E08C2F0E94AD24CF5FCB30D1F708C07C
:100DF000039731F487E090E09093310480933004BE
:100E000061E084E00E94062D61E081E0DF91CF91F6
:100E10001F910F910C94062D80912E0490912F0418
:100E2000019709F013C188819981AA81BB818093C0
:100E30001A0490931B04A0931C04B0931D048C858A
:100E40009D85AE85BF8580931E0490931F04A0935B
:100E50002004B09321048C819D81AE81BF81809359
:100E6000220490932304A0932404B093250483E0E8
:100E700090E0909331048093300460E084E00E941D
:100E8000062D60E0C2CFFB01ED59FF4F808181113B
:100E900047C081E2E5E5F4E0DF011D928A95E9F7BC
:100EA000FB0101900020E9F73197AF01461B570B7A
:100EB00085E594E00E94D63781E090E090932F047E
:100EC00080932E0410921A0410921B0410921C049A
:100ED00010921D0410921E0410921F041092200400
:100EE00010922104109222041092230410922404E0
:100EF00010922504FE0101900020E9F73197BF010F
:100F00006C1B7D0B9E012F5D3F4FFE01EE59FF4F85
:100F10004081CE01DF91CF911F910F910C94CB14A2
:100F20008BE090E09093310480933004DF91CF9177
:100F30001F910F910C9453258881882309F486C052
:100F400033C08B01065F1F4FF80101900020E9F7C5
:100F50003197AF01401B510B81E2E2E3F4E0DF0186
:100F60001D928A95E9F74115510521F0B801CF018D
:100F70000E94D63780912C0490912D04892BB9F4CE
:100F80008981082E000C990BAA0BBB0B80932804B7
:100F900090932904A0932A04B0932B048A81809310
:100FA00053048B818093540482E090E0E7CEF801F3
:100FB00080E090E02291A0912C04B0912D04A80F24
:100FC000B91F2C93019686309105A1F7D9CF809156
:100FD0002C0490912D04892BA1F0DB019C9680E0DC
:100FE00090E02E91E0912C04F0912D04E80FF91F70
:100FF0002083019686309105A1F710922D0410925E
:101000002C04BE0185E594E0DF91CF911F910F91F3
:101010000C94DF37409128045091290460912A04F0
:1010200070912B04411551056105710579F088E037
:10103000FE01DA0101900D928A95E1F710922804E1
:101040001092290410922A0410922B04DF91CF9160
:101050001F910F910895CF93DF9300D000D000D05F
:10106000CDB7DEB79A014EE751E05A8349831B8220
:101070001C821D821E82AB01BE016F5F7F4F0E94EA
:10108000D21526960FB6F894DEBF0FBECDBFDF9106
:10109000CF910895CF93DF9300D000D000D0CDB78B
:1010A000DEB79A014EE751E05A834983FB01428142
:1010B0005381648175814B835C836D837E8340E0C3
:1010C00050E0BE016F5F7F4F0E94D21526960FB68B
:1010D000F894DEBF0FBECDBFDF91CF910895DC0144
:1010E0001C968D919C911D97DC01ED91FC910280E5
:1010F000F381E02D0994DC011C968D919C911D9744
:10110000DC01ED91FC910688F789E02D0994CF93DD
:10111000DF93EC010E947B08882311F08CA501C0AD
:1011200080E0DF91CF910895CF93DF93EC01C25A15
:10113000DF4F48815981FC01E45AFF4F6081718182
:101140000E946F0821E030E0488159814817590713
:1011500011F020E030E019821882C901DF91CF91AF
:1011600008950F931F93CF93DF938A01FC01E45AF4
:10117000FF4FEC01C25ADF4F208131818881998174
:10118000820F931F0E94D63788819981800F911F0B
:1011900099838883C801DF91CF911F910F910895A2
:1011A000AF92BF92CF92DF92EF92FF920F931F9375
:1011B000CF93DF935B018A01FC01E359FF4F20814C
:1011C0003181232B61F0DF91CF911F910F91FF901F
:1011D000EF90DF90CF90BF90AF900C94B108FC01DE
:1011E000E05AFF4F2081222361F0DF91CF911F91C0
:1011F0000F91FF90EF90DF90CF90BF90AF900C9445
:101200006F087C0123E6E20EF11CF701C080D1805B
:101210009A012C0D3D1D2038310520F000E810E02A
:101220000C191D09EC01CF59DF4F88819981892B59
:1012300031F480E890E00E94EA35998388838881C0
:101240009981A801B5018C0D9D1D0E94D637F7012B
:1012500080819181800F911F91838083C801DF91EC
:10126000CF911F910F91FF90EF90DF90CF90BF90A3
:10127000AF900895CF93DF9300D0CDB7DEB7762738
:10128000672776277A83698342E050E0BE016F5F6B
:101290007F4F0E94B1080F900F90DF91CF9108957A
:1012A000CF92DF92EF92FF920F931F93CF93DF9332
:1012B000EC016B018A01BA010E943A097C01A80184
:1012C000B601CE010E94B1088E0D9F1DDF91CF9116
:1012D0001F910F91FF90EF90DF90CF900895CF92E4
:1012E000DF92EF92FF920F931F93CF93DF931F92A2
:1012F000CDB7DEB779016C012CE5C20ED11CF60129
:10130000118300838C01025A1F4FF8011182108251
:10131000F0E16F9FB0011124642B698341E050E03C
:10132000BE016F5F7F4F0E94B1082E2D2F77EE0C0C
:10133000EF2CEE1CFF08F194E114F10409F0206891
:10134000F60140815181F80180819181BC016F5F7C
:101350007F4F71836083FA01E80FF91F2083E11446
:10136000F10419F7F801808191810F90DF91CF91FD
:101370001F910F91FF90EF90DF90CF900895CF9243
:10138000DF92EF92FF920F931F93CF93DF9300D0E2
:1013900000D0CDB7DEB77C01FC01EC5BFF4F808154
:1013A000813059F43296C080D1808E010F5F1F4F7B
:1013B00022E030E040E064E00EC08230B1F4F7019A
:1013C000EA5BFF4FC080D1808E010F5F1F4F22E08C
:1013D00030E040E065E0C7010E946F09B601C70137
:1013E0000E943A09C7010E9494080F900F900F9035
:1013F0000F90DF91CF911F910F91FF90EF90DF90B1
:10140000CF9008958F929F92AF92BF92CF92DF922A
:10141000EF92FF920F931F93CF93DF93DC019F9680
:101420002D913C91D0972630310519F000E010E065
:1014300053C08A015B01EC01E881F9810084F185E8
:10144000E02D09956C010817190708F4680175016A
:1014500000E010E00C151D0571F10E945B204B01AE
:101460005C01CE010E949E01892B99F08C859D859F
:10147000DC01ED91FC910284F385E02D09958F3F0D
:10148000BFEF9B07C1F00F5F1F4FD7018D937D0109
:10149000E1CFCE010E947B08882369F00E945B2087
:1014A000DC01CB0188199909AA09BB09883E934040
:1014B000A105B105B0F20115110509F4B7CF8BA94B
:1014C0009CA9801B910B9CAB8BAB892B29F4CE0183
:1014D0000E94BF0918AA1FA6C801DF91CF911F91D2
:1014E0000F91FF90EF90DF90CF90BF90AF909F90C3
:1014F0008F900895EF92FF920F931F93CF93DF93F6
:1015000000D0CDB7DEB77C01DC01ED91FC910688FF
:10151000F789E02D0995882369F08E010F5F1F4F31
:1015200020E030E040E06EE0C7010E946F09C70193
:101530000E949408F70114A684859585DC01ED913D
:10154000FC910488F589E02D09950F900F90DF91AB
:10155000CF911F910F91FF90EF9008952F923F929E
:101560004F925F926F927F928F929F92AF92BF92B3
:10157000CF92DF92EF92FF920F931F93CF93DF935F
:10158000CDB7DEB760970FB6F894DEBF0FBECDBF04
:101590007C010E949E01892B31F4C7010E947B08C7
:1015A000882309F4C8C2C701835B9F4F98878F8344
:1015B00067019BE4C90ED11CD701AA5BBF4FBA8754
:1015C000A9875701B8E4AB0EB11C2701EFE34E0E1B
:1015D000511C4701F1E48F0E911C170184E4280E81
:1015E000311CD701A65ABF4FBE83AD83F701E65B1E
:1015F000FF4FFC87EB87C701805A9F4F9E878D87DF
:101600005197B88BAF87C7010E949E01892B31F497
:10161000F70184A5882309F493C241C2D7011C961F
:101620008D919C911D97DC01ED91FC910284F385D5
:10163000E02D09958C010E945B20EF81F885608385
:10164000718382839383D7019F96ED91FC91D0970C
:10165000E830F10508F01CC2EC5CFF4F0C94E43557
:10166000C8019927F4E095958795FA95E1F7F70178
:1016700081AB0F7002AB14AA13AA81E090E0A0E046
:10168000B0E085AB96ABA7ABB0AF8FC1D701D59615
:101690004D915D916D917C91D897C8018F77992775
:1016A000849F9001859F300D949F300D1124D39617
:1016B0008D919C91D497280F391FD4963C932E93EB
:1016C000D397E7E0440F551F661F771FEA95D1F7C0
:1016D000F70145AB56AB67AB70AF41305105604287
:1016E000710508F020C207FD8ECFF70181A9823075
:1016F00041F09CEF980F923020F0873011F08B3042
:1017000049F4D701D2969C9191110CC22230310537
:1017100049F108C2833031F4F70182A9867086301E
:1017200019F500C2863041F482A9823009F0FAC16D
:101730002230310579F1F6C1893041F4F70182A9EF
:101740008111F0C12330310529F1ECC18D3009F050
:10175000E9C182A98111E6C1232B09F0E3C110AAD6
:1017600017A61DC08330B1F4F70182A9ED5BFF4FCE
:10177000982F991F9927991F9083282F30E035952E
:1017800027952370D1012C9332968170808383E05A
:1017900090E002C082E090E0F70190AB87A7D6010D
:1017A0001D921C9275C1F601808191819C012F5F71
:1017B0003F4F318320838E0D9F1DFC01E85BFF4F5F
:1017C0000083D701D3968D919C91D4972817390720
:1017D00009F019CFD0961C921E929F97D1968C91AA
:1017E000D197823029F4EF85F889808190E051C04B
:1017F0009CEF980F923020F0873011F08B30A1F4DD
:10180000D5018D919C91982789279827ED81FE819C
:10181000208131812817390709F0F5CED701DA96F2
:101820001C921E92D99734C18630E9F4F50160808C
:101830007180762467247624AD85BE858C918111D4
:10184000E2CE8E010F5F1F4F22E030E040E067E004
:10185000C7010E946F09B301C7010E943A09C7017D
:101860000E94940815C1893009F0CDCEF501808120
:101870009181982789279827AD81BE812D913C9130
:101880008217930709F0BFCEEB85FC85808190E03D
:10189000D701DA969C938E93D997FAC0F60180818E
:1018A00091819C012F5F3F4F318320838E0D9F1DBF
:1018B000FC01E85BFF4F00832230310509F0A3CE25
:1018C000D5018D919C91982789279827F4019183C0
:1018D0008083D701D3968D919C91D4970297D4960B
:1018E0009C938E93D39765E272E08701055C1F4F4E
:1018F000C8010E946529F40160817181C8010E94BC
:101900001329D1014C91F70123A934A9D4018D9158
:101910009C91442341F002962817390740F4019026
:10192000F081E02D02C12817390708F4FBC0F60149
:101930001182108284E090E0D701A6C009831A8248
:10194000F201008111810F5F1F4FB801C701CB96D3
:101950000E941329882391F0D701DB962D913C91A9
:10196000DC97F20180819181BE016F5F7F4F820F12
:10197000931F0E94DF37D2010D931C93F401208145
:101980003181D2018D919C912817390709F080C0CF
:10199000F70183A994A9821B930B94AB83ABD1016C
:1019A0002C91222329F085E090E090AB87A770C0AE
:1019B00026E030E0F70130AB27A70684F785E02D5D
:1019C000309709F425CE0995D701D3968D919C9136
:1019D000D497892B09F05CC0F70110AA17A658C04C
:1019E000D6018D919C9111979C012F5F3F4F2D93B4
:1019F0003C938E0D9F1DFC01E85BFF4F008322305E
:101A0000310509F000CEF70183A994A9029794ABA0
:101A100083ABD5012D913C91322723273227E985CD
:101A2000FA853183208326E030E0D701D0963C93BD
:101A30002E939F971E96ED91FC911F97309709F07A
:101A40000995F70183A994A9892B11F5C7010E9473
:101A5000BF09D7011E968D919C911F97892B09F084
:101A6000BBCF16C0F70183A994A9009719F001977D
:101A700094AB83ABD701D3968D919C91D497892B4E
:101A800009F4AACF87E090E0D0969C938E939F971D
:101A9000F70187A590A9069709F0B5CDB9CD0E94A9
:101AA0005B20D70192960D911D912D913C919597B8
:101AB000F701EB59FF4F80809180A280B3802B010A
:101AC0003C01481859086A087B084016510662060E
:101AD000730690F060837183828393838E010F5F1E
:101AE0001F4F20E030E040E06CE0C7010E946F092A
:101AF000C7010E94940824C0F701E35BFF4F808078
:101B00009180A280B380DC01CB0188199909AA09D0
:101B1000BB09000F111F221F331F80179107A20757
:101B2000B30770F0D701ED91FC910488F589E02DA1
:101B3000C701099505C0F70110AA17A614A633CD51
:101B400060960FB6F894DEBF0FBECDBFDF91CF9188
:101B50001F910F91FF90EF90DF90CF90BF90AF90CB
:101B60009F908F907F906F905F904F903F902F90BD
:101B700008950F931F93CF93DF93EC018AE391E0D5
:101B8000998388838E0107591F4FF80180819181C5
:101B9000009729F00E948236F801118210828E018E
:101BA0000F591F4FF80180819181009729F00E9401
:101BB0008236F80111821082CE018F5A9F4F0E9407
:101BC0008629CE01CB960E948629CE014C960E9492
:101BD0008629CE0146960E948629CE014096DF9145
:101BE000CF911F910F910C948629CF93DF93EC0135
:101BF0000E94B90DCE01DF91CF910C9482360895E9
:101C0000E0ECF7E083818F5F83830895E091DF0745
:101C1000F091E007309709F009940895DC011C96D3
:101C2000EC91EF3F61F0B0E3EB02F0011124E651DB
:101C3000FB4F86859785982789279827089580E008
:101C400090E00895CF93DF9300D000D0CDB7DEB7FA
:101C50008091C107882329F08091C107815080932A
:101C6000C1078091C107811154C08091C0078823AA
:101C700009F44FC0AE014F5F5F4F60E170E080E05C
:101C800090E00E945822811145C0898180FDF2CFE9
:101C9000AE014F5F5F4F61E070E080E090E00E9436
:101CA0005822811137C089819A81AB81BC8181FD25
:101CB0000CC0AE014F5F5F4F6BE070E080E090E0E2
:101CC0000E945822882389F025C09C01AD012D7FF8
:101CD00029833A834B835C8361E070E080E090E08D
:101CE0000E94BA23882329F315C049815A816B8148
:101CF0007C8140FF0FC09A01AB012E7F29833A837C
:101D00004B835C836BE070E080E090E00E94BA233C
:101D100001C080E00F900F900F900F90DF91CF9156
:101D20000895FB016191DC016D93CD0121503109D2
:101D300041095109B9F70895FC019F01281B390B8E
:101D400041914111FACFC9010895AF92BF92CF924C
:101D5000DF92EF92FF920F931F93CF93DF931F9227
:101D6000CDB7DEB78C017B016A011982892B51F056
:101D7000672B09F059C0AA24A394B12CCE01019677
:101D80007C0106C0A12CBB24B3948E010F5F1F4FB2
:101D900020910D0490910E048091E707882379F03B
:101DA0008FB7F8943091E707313039F43DB3309371
:101DB00027033DB33DBB8FBF02C0809327032CBDDB
:101DC0009DBD60E08AE00E94981FC114D104B9F063
:101DD000F80180818EBD00000DB407FEFDCF8EB5E9
:101DE000F7018083F1E0CF1AD108A11003C08FEF73
:101DF000E81AF80AB110E9CF0F5F1F4FE6CF61E094
:101E00008AE00E94981F8091E707882379F09FB7A6
:101E1000F8942091E70780912703213019F48DBBB6
:101E20009FBF04C08FBF02C08AEF01C080E00F9047
:101E3000DF91CF911F910F91FF90EF90DF90CF90A6
:101E4000BF90AF900895CF93DF93EC0162E00E94C2
:101E5000E51FFE01E254FF4FE491E0932603FE01EB
:101E6000EE52FF4FE491F0E0EE0FFF1FEA56FF4FF6
:101E7000859194919093250380932403C631D105D5
:101E800098F580916800C830D1052CF0CE30D1058E
:101E900024F491E003C094E001C092E0892B809388
:101EA0006800C830D10534F0CE30D10534F4EBE60B
:101EB000F0E005C0EDE6F0E002C0ECE6F0E0F09303
:101EC0002903E09328039081C830D10534F0CE3047
:101ED000D10514F4289701C02E9781E001C0880F26
:101EE000CA95EAF7892B8083DF91CF91089586E028
:101EF0009EE09093BF078093BE0787E090E00C942C
:101F0000230FCF93DF9300D000D0CDB7DEB7109270
:101F1000E6071092C2070E94770FAE014F5F5F4F36
:101F200060E770E180E090E00E945822811111C0CA
:101F300089819A81AB81BC819C01AD01226029839A
:101F40003A834B835C8360E770E180E090E00E941D
:101F5000BA230F900F900F900F90DF91CF910895BB
:101F60008F929F92AF92BF92CF92DF92FF920F9388
:101F70001F93CF93DF93CDB7DEB72C970FB6F894AE
:101F8000DEBF0FBECDBF8091E607882311F010E0C1
:101F90001AC1FF24F3948091C3078823C1F3809171
:101FA000C30781508093C307AE01475F5F4F60E76F
:101FB00070E180E090E00E945822182F8111FCC04F
:101FC00089859A85AB85BC8580FFF6C0E0912803A2
:101FD000F091290380818F77808389859A85AB85ED
:101FE000BC858E7F89879A87AB87BC8729853A8590
:101FF0004B855C8560E770E180E090E00E94BA2349
:10200000182F8111D9C0F092C20789859A85AB85B6
:10201000BC8522E0B695A795979587952A95D1F727
:102020006C012FE0D222C114D10409F4C4C019827A
:102030001A821B821C82AE014F5F5F4F64E870E121
:1020400080E090E00E945822082F882319F00E9417
:10205000770FAFC069817A818B819C816093C407BF
:102060007093C5078093C6079093C707860120E049
:1020700030E00093C8071093C9072093CA07309334
:10208000CB0704E010E020E030E0AE014B5F5F4F93
:102090000E94152B182F8F81988598878F83112385
:1020A00021F00E94770F012F84C08F819885C81678
:1020B000D90659F08F8198859601281B390B253058
:1020C000310518F00E94770F73C08D81813061F463
:1020D0008091CC079091CD07892B09F45BC0E091EA
:1020E000CC07F091CD0746C08D81823061F480919C
:1020F000CE079091CF07892B09F44CC0E091CE0711
:10210000F091CF0737C08D81843059F48091D0078A
:102110009091D107892BF1F1E091D007F091D1078F
:1021200029C08D81863059F48091D6079091D707C8
:10213000892B81F1E091D607F091D7071BC08D81E3
:10214000873059F48091D2079091D307892B11F1F0
:10215000E091D207F091D3070DC08D81853041F514
:102160008091D8079091D907892BA1F0E091D807E9
:10217000F091D9076F8178858E8189809A80AB80B4
:10218000BC80A5019401285F3F4F4F4F5F4F6850BF
:10219000710909958091E60781110EC08091C207EF
:1021A000882351F00E94810F082F811102C004C0C2
:1021B0000AEF102F01C01EEF8091E607811103C0C6
:1021C0001111F2CEE8CE812F2C960FB6F894DEBF17
:1021D0000FBECDBFDF91CF911F910F91FF90DF9088
:1021E000CF90BF90AF909F908F9008951F920F92C5
:1021F0000FB60F9211242F933F934F935F936F93DA
:102200007F938F939F93AF93BF93EF93FF93E0914F
:102210002403F0912503908180912603892339F4CA
:10222000E091BE07F091BF07309709F00995FF9143
:10223000EF91BF91AF919F918F917F916F915F913E
:102240004F913F912F910F900FBE0F901F901895B7
:10225000CF92DF92EF92FF926B017C01C114D10407
:10226000E104F10461F061E070E080E090E00E9440
:10227000212081E0C81AD108E108F108EFCFFF90D2
:10228000EF90DF90CF900895AF92CF92DF92EF92D0
:10229000FF920F931F93CF93DF93CDB7DEB72897AD
:1022A0000FB6F894DEBF0FBECDBF8091C20781117B
:1022B00084C08091C107882331F08091C1078F5F6E
:1022C0008093C1077AC08091C0078823B1F31D8233
:1022D0001E821F82188619821A821B821C82AE01FE
:1022E0004B5F5F4F6BE070E080E090E00E9458220F
:1022F00081115FC08D819E81AF81B88580FF0CC048
:10230000AE014B5F5F4F61E070E080E090E00E94C3
:102310005822882369F04DC09C01AD0121606BE01B
:1023200070E080E090E00E94BA23882349F341C026
:102330008D819E81AF81B88581FF03C000E010E0F0
:102340000CC09C01AD01226061E070E080E090E093
:102350000E94BA23882391F32CC0AE014F5F5F4FD8
:102360006FE070E080E090E00E945822811121C06F
:10237000898182FD0DC062E070E080E090E00E9403
:1023800028110F5F1F4F0530110539F78CEF16C06C
:10239000A12CC12CD12C760100E010E0980140E086
:1023A00050E0BA018FEC0E94DB298FEC0E947D2A5D
:1023B00084CF882309F481CF01C080E028960FB62E
:1023C000F894DEBF0FBECDBFDF91CF911F910F916B
:1023D000FF90EF90DF90CF90AF9008952F923F92B3
:1023E0004F925F926F927F928F929F92AF92BF9225
:1023F000CF92DF92EF92FF920F931F93CF93DF93D1
:10240000CDB7DEB762970FB6F894DEBF0FBECDBF73
:10241000482E562E3A0149015801862F8F778E8714
:102420004D8688E090E0988B8F878F859889012B67
:1024300029F08E0D9F1D8C0D9D1D02C0820F931FD4
:10244000988B8F870E94441181113FC11D821E828B
:102450001F8218861A8A198A19861A861B861C8674
:1024600089859A85AB85BC85842989879A87AB87BE
:10247000BC8789859A85AB85BC85952989879A878C
:10248000AB87BC872F85388949855A856B857C85C4
:10249000C901A0E0B0E0DC0199278827842B952BA7
:1024A000A62BB72B89879A87AB87BC8729853A8566
:1024B0004B855C856CE870E180E090E00E94BA2377
:1024C0008111FAC019861A861B861C8689859A8511
:1024D000AB85BC85826089879A87AB87BC87298555
:1024E0003A854B855C8568E770E180E090E00E946A
:1024F000BA238111E1C01D821E821F8218861A8AAA
:10250000198A89899A89883E934058F4AE01475FB9
:102510005F4F68E770E180E090E00E9458228823D6
:1025200049F08D819E81AF81B885892B8A2B8B2BB9
:1025300051F5BEC089899A89843F914040F08989CC
:102540009A8961E070E080E090E00E94281189851E
:102550009A85AB85BC8581FD10C0AE014B5F5F4F96
:1025600060E074E085E190E00E9458228823C9F27F
:102570001D821E821F8218869FC089899A890196B2
:102580009A8B898BBECF8D819E81AF81B8858983DF
:102590009A83AB83BC838F859889988B8F87698159
:1025A0007A818B819C8108E010E020E030E0AE0170
:1025B000435F5F4F0E94BA2A81117EC089819A8150
:1025C000AB81BC810896A11DB11D89839A83AB8321
:1025D000BC8361147104D1F01401412C512C698128
:1025E0007A818B819C8192018101A3010E94BA2A88
:1025F000811162C089819A81AB81BC81820D931D5A
:10260000A41DB51D89839A83AB83BC83A114B10437
:1026100041F189819A81AB81BC81C818D9088C0DA0
:102620009D1DA11DB11D89839A83AB83BC832701A6
:10263000612C712C69817A818B819C81930182014B
:10264000A5010E94BA2A811137C089819A81AB8184
:10265000BC81840D951DA61DB71D89839A83AB830C
:10266000BC838D819E81AF81B88522E0880F991F40
:10267000AA1FBB1F2A95D1F789879A87AB87BC878A
:1026800089859A85AB85BC85826089879A87AB8767
:10269000BC8729853A854B855C856CE670E180E0D6
:1026A00090E00E94BA23811107C00E94220E0DC043
:1026B0000E94220E8DEF09C09091C107992329F045
:1026C0009091C10791509093C10762960FB6F8940C
:1026D000DEBF0FBECDBFDF91CF911F910F91FF9055
:1026E000EF90DF90CF90BF90AF909F908F907F90B2
:1026F0006F905F904F903F902F90089560E085E03D
:102700000E94981F64E670E080E090E00E9428112B
:1027100061E085E00E94981F64E670E080E090E050
:102720000C942811EAE2F3E0A089B18982E08C934D
:10273000A485B5851C92A685B7858FEC8C93108EE9
:10274000A489B58986E08C93A289B3898C91806134
:102750008C93A289B3898C9188608C93A289B38968
:102760008C9180688C930288F389E02D80818F7D25
:1027700080830895CF92DF92EF92FF920F931F9381
:10278000CF93DF93CDB7DEB79C01CDB6DEB6909187
:10279000D204933008F054C0E090CF04F090D004FD
:1027A000B701911103C06E5F7F4F0FC06C5F7F4F09
:1027B0004091D4045091D5044F5F5F4F11F441E034
:1027C00050E05093D5044093D404AB014B5F5F4F6E
:1027D000EDB7FEB7E41BF50B0FB6F894FEBF0FBEC6
:1027E000EDBF0DB71EB70F5F1F4F4091D104992366
:1027F00011F0990F492B8091D30481114860260F65
:10280000371F63E08AE794E00E946F096091CB0470
:102810007091CC04A7018AE794E00E94500980914E
:10282000D204882341F06091D4047091D5048AE7E2
:1028300094E00E943A098AE794E00E94940802C05A
:1028400080E090E00FB6F894DEBE0FBECDBEDF9103
:10285000CF911F910F91FF90EF90DF90CF9008954F
:102860000F931F93CF93DF93CDB7DEB761970FB66A
:10287000F894DEBF0FBECDBF8C01CB01F8011182F1
:10288000108213821282158214824AE0BE016F5FA9
:102890007F4F0E940035BE016F5F7F4FC8010E94CD
:1028A000652961960FB6F894DEBF0FBECDBFDF91EC
:1028B000CF911F910F91089563E272E08AE293E055
:1028C0000C941624CF93DF93BC018AE293E00E941C
:1028D0001624EC010E945C148C0F9D1FDF91CF9198
:1028E0000895CF93DF93EC0161E083E00E94E51F40
:1028F000209711F460E004C0CF3FD10531F461E0CE
:1029000083E0DF91CF910C94981FE3EAF0E0E4912B
:10291000E330F9F048F4E130B9F0E230A1F584B5E4
:10292000806284BDC8BD34C0E730E9F0E83019F1F9
:10293000E43049F580918000806280938000D093DC
:102940008B00C0938A0024C084B5806884BDC7BD55
:102950001FC080918000806880938000D0938900A0
:10296000C093880015C08091B00080688093B0004B
:10297000C093B3000DC08091B00080628093B0001E
:10298000C093B40005C0C038D1050CF0B8CFB2CFA9
:10299000DF91CF910895CF92DF92EF92FF920F9344
:1029A0001F93CF93DF93CDB7DEB7CC56D1090FB6C7
:1029B000F894DEBF0FBECDBF6C01E62EF42E890168
:1029C00081E0481709F12115310511F484EF92C017
:1029D000E2E04E1319C0C9010E949C0E803491059B
:1029E00099F4F8019801205C3F4F819190ED980F88
:1029F000973360F796EC980F973040F387548A31FD
:102A000028F3E217F30789F78FEF8E0D8032F0F687
:102A10002E2D30E040E050E0B601CE01895B9F4FA3
:102A20000E94910EE7E4F0E0EC0FFD1FEE0DF11DAA
:102A300010828FEF90E027969FAF8EAF2797A996D1
:102A40001FAEA9972396FFAE2397F3E0FF1221C094
:102A5000F80180818983843008F0B8CF21812A83EE
:102A6000822F8F7E8A3009F0B1CF30E040E050E015
:102A7000B8016E5F7F4FCE0103960E94910EF80160
:102A80008181E3E0F0E0EC0FFD1FE80FF11D108203
:102A900022C0F2E0FF120FC0C8010E949C0E9C01F0
:102AA000215031092034310508F090CF2E5F3F4F7F
:102AB00040E050E007C084E0F8120AC02EE330E0A6
:102AC00040E050E0B801CE0101960E94910E03C093
:102AD000E1E0FE127BCFC12CD12CE12CF12C00E0E7
:102AE00010E02CE630E0AE014F5F5F4F68E281E01E
:102AF0000E94EE11C459DF4F0FB6F894DEBF0FBE2F
:102B0000CDBFDF91CF911F910F91FF90EF90DF909C
:102B1000CF9008951F93CF93DF9300D000D0CDB70F
:102B2000DEB7182F0E944411811134C0812F0E94FA
:102B3000E42C182F87FD2CC0AE014F5F5F4F68E07B
:102B400071E082E090E00E945822811121C081E072
:102B500090E0A0E0B0E0AC01BD0104C0440F551FFF
:102B6000661F771F1A95D2F789819A81AB81BC8144
:102B70009A01AB01282B392B4A2B5B2B29833A83F3
:102B80004B835C8368E071E082E090E00E94BA23AE
:102B90000E94220E0F900F900F900F90DF91CF9117
:102BA0001F9108952F923F924F925F926F927F9262
:102BB0008F929F92AF92BF92CF92DF92EF92FF924D
:102BC0000F931F93CF93DF93CDB7DEB76B970FB6FD
:102BD000F894DEBF0FBECDBF7C015B016A018901A5
:102BE0002DB73EB73B8F2A8F0E947B08882361F068
:102BF000D7011C968D919C911D97DC01ED91FC9164
:102C00000488F589E02D0995F70110AA17A614A6E6
:102C1000E65AFF4F11821082D7011C968D919C912C
:102C20001D97DC01ED91FC91C114D10481F0008865
:102C3000F189E02DA801B6010995892BF9F48EEFF1
:102C40009FEFF70193A782A700E010E063C106841D
:102C5000F785E02D2EE731E03A832983D5011296DE
:102C60004D915D916D917C9115974B835C836D8344
:102C70007E83A801BE016F5F7F4FDECF0E945B2085
:102C8000F701E35BFF4F60837183828393831B8A29
:102C90001A8A1D8A1C8A1F8A1E8A5E01B2E1AB0E47
:102CA000B11CC7014096A816B90659F0F701608912
:102CB00071896115710529F044895589C5010E9402
:102CC0003A296E887F88D7015A968D909C905B97A1
:102CD00090964D905C909197FE0131961F01611482
:102CE000710409F50E945B209F938F937F936F93EC
:102CF00081E092E09F938F931F9281E18F933F92A7
:102D00002F920E94E637B101C5010E9465292DB7B7
:102D10003EB7265F3F4F0FB6F8943EBF0FBE2DBFA4
:102D200070E1672E712CC70185599F4F998F888F4D
:102D3000DC01CD90DC90BCE0CB0ED11CC60CD71CC6
:102D40008114910431F0C4010296C80ED91E80E8A6
:102D500001C080E04114510431F0806492012E5F83
:102D60003F4FC20ED31EF701E159FF4F9081926091
:102D7000892B20E034E03A83298340910F0250915F
:102D8000100260911102709112024B835C836D837B
:102D90007E8394E09F838887F70162A173A184A159
:102DA00095A128EE33E040E050E00E945235922F8A
:102DB00088277727652F542F432F9C01242B352BF1
:102DC0003A872987C60105962DB73EB7281B390BD0
:102DD0000FB6F8943EBF0FBE2DBF0DB71EB70F5FE5
:102DE0001F4F960140E061E0C7010E946F094AE071
:102DF00050E0B101C7010E94B1086A897B89A30133
:102E0000C7010E945009A88DB98D4D915C91411563
:102E1000510541F0F701E759FF4F60817181C7010A
:102E20000E94B1088114910439F0F701668977890D
:102E3000A401C7010E9450094114510449F0D7016F
:102E40005C966D917C915D97A201C7010E9450092B
:102E5000C7010E9494088C01892B81F4F7018485B5
:102E60009585DC01ED91FC910488F589E02D0995AB
:102E700083E090E0F70193A782A73BC08FEF9FEF1D
:102E8000D701DA969C938E93D9970E945B202B01F1
:102E90003C010E945B20DC01CB0184199509A60945
:102EA000B709F70106A117A120A531A58017910741
:102EB000A207B30768F4C7010E947B08882341F08A
:102EC000C7010E94AE0AF70181AD92AD019609F3E8
:102ED000D701D9968D919C91DA979B969C938E936E
:102EE0009A97892B51F481E0D7019C968C9301E04D
:102EF00010E0C5010E9486290DC0F70184859585E3
:102F0000DC01ED91FC910488F589E02D099500E044
:102F100010E0EFCFC801EA8DFB8D0FB6F894FEBF2D
:102F20000FBEEDBF6B960FB6F894DEBF0FBECDBFE0
:102F3000DF91CF911F910F91FF90EF90DF90CF9095
:102F4000BF90AF909F908F907F906F905F904F90C9
:102F50003F902F900895BF92CF92DF92EF92FF9211
:102F60000F931F93CF93DF93CDB7DEB7EA970FB6DA
:102F7000F894DEBF0FBECDBF1092E0071092DF07BE
:102F800061E085E00E94E51F61E085E00E94981FF6
:102F900060E087E00E94E51F0E947E1385E696E0D0
:102FA0009093DE078093DD071092DC07FFB6F8945C
:102FB0008091DA07811127C0ECEDF0E08491E8EC14
:102FC000F0E09491E82FF0E0EE0FFF1FEC54FF4F7C
:102FD000A591B491EC91E92321F461E08AE00E948B
:102FE000981F61E08AE00E94E51F8CB580618CBD6E
:102FF0008CB580648CBD61E08DE00E94E51F61E0CE
:103000008BE00E94E51F8091DA078F5F8093DA07DB
:10301000FFBE61E08AE00E94E51F61E08AE00E9455
:10302000981F0E947E1361E070E080E090E00E94B3
:1030300028110E94722BDC01CB01807F9F70AA2790
:10304000BB27803A9340A105B105A1F41FA218A6A1
:1030500019A61AA61092DB077E0147E2E40EF11CC6
:10306000A70164E278EE80E090E00E94BF21811128
:103070001DC010C00E94722BDC01CB01807F9F70AD
:10308000AA27BB27803B9240A105B105F9F2B0EF1A
:10309000BB2E05C181E08093DB07A70164E278EED7
:1030A00080E090E00E94BF218823E9F18091DB0756
:1030B000811117C08FA198A5A9A5BAA583789C01F5
:1030C000AD0120652FA338A749A75AA764E278EE7F
:1030D00080E090E00E943923882329F181E08093E9
:1030E000DB07AE01415D5F4F60E070E180E090E0A2
:1030F0000E94BF218823B9F0AE014F5F5F4F64E2A9
:1031000078EE80E090E00E94BF2189819A81AB81B6
:10311000BC818F789C01AD01206564E278EE80E08F
:1031200090E00E94BA23AE014F5F5F4F64E170E10F
:1031300080E090E00E94BF2189819A81AB81BC81AF
:10314000B7FD07C061E070E080E090E00E942811C8
:10315000EACFAE014F5F5F4F6CEB77E082E090E02B
:103160000E94BF21898180FF1AC022E533E1A901B5
:103170006CE870E180E090E00E94702B0E94722B5E
:10318000DC01CB019F70AA27BB27803A9340A105A1
:10319000B10550F162E070E080E090E028C0C12C01
:1031A000D12C61E070E080E090E00E942811AE0137
:1031B0004F5F5F4F6CE070E0CB010E94BF218981BF
:1031C0009A81AB81BC81E0EDCE16E7E0DE0619F412
:1031D0001BEFB12E64C0FFEFCF1ADF0A8E39904D7E
:1031E000AD4AB041F1F6C1CF60E070E0CB010E9482
:1031F000202C21E63FE242E55FEE6CE070E0CB017F
:103200000E94702B8CE890E1A0E0B0E08FAB98AF0B
:10321000A9AFBAAF86E396E2A3E5B2E08BAB9CAB75
:10322000ADABBEABC12CD12C80E090E0DC014BA952
:103230005CA96DA97EA9481759076A077B07E1F0C9
:1032400062E070E080E090E00E9428116FA978AD04
:1032500089AD9AADAE014F5F5F4F0E94BF2189815A
:103260009A81AB81BC814FEFC41AD40A50EDC516C8
:1032700057E0D506E1F6ACCF8BA99CA9ADA9BEA9B4
:1032800086339642A345B24069F420E030E0A901BC
:103290006CE870E180E090E00E94702B03C00E9417
:1032A0001F2170C019821A821B821C82AE014F5FDF
:1032B0005F4F68E074E180E090E00E945822B82EF1
:1032C000811115C089819A81AB81BC819C01AD01BE
:1032D000316029833A834B835C8368E074E180E04A
:1032E00090E00E94BA23B82E882309F47CC1B11063
:1032F000D6CFE0ECF7E0119287E0EA3DF807D9F786
:1033000080E09EE09093E0078093DF0786E09EE0F8
:103310009093BF078093BE0787E090E00E94230F41
:103320008FEF9DE09093D5078093D40789EF9DE2BE
:103330009093CD078093CC071FA618AA19AA1AAAA2
:1033400088E0F70111928A95E9F7AE014F5F5F4F70
:103350006A01F60111926F01EE15FF05D1F7AE017A
:10336000415D5F4F68E070E08CE090E00E94582281
:10337000B82E882341F124EFB21609F453C1BB20C3
:1033800009F48FC023EFB21609F48BC040EFB416D6
:1033900039F060E086E00E94062D83E00E948A15E5
:1033A0008B2DBB0C990BEA960FB6F894DEBF0FBEBF
:1033B000CDBFDF91CF911F910F91FF90EF90DF90E4
:1033C000CF90BF9008958FA598A9A9A9BAA90097F1
:1033D000A105B10509F426C1BC01CD01836008E057
:1033E00010E020E030E0A6010E94152BB82E8111DC
:1033F000C2CF8BA59CA5ADA5BEA5AA27BB278FA72D
:1034000098ABA9ABBAAB0097A105B10509F40AC105
:10341000BC01CD01836006E210E020E030E0AE01A7
:103420004F5F5F4F0E94152BB82E8111A4CF8D8165
:1034300090E0982F88272F812F70AC01422B9A01A2
:103440008E8150E1859FC00111249927822B932BF7
:10345000AC0160E070E04093E1075093E2076093B5
:10346000E3077093E407288530E0322F22274A854E
:103470004F70242B498560E1469FA00111245527F8
:10348000242B352B009709F4CDC02115310509F403
:10349000C9C02335334108F035C18235934108F462
:1034A00031C18091E507811114C0E5E4F7E0119284
:1034B00057E0EE3BF507D9F788E69CE19093CF07FC
:1034C0008093CE0781E08093E50710924407109225
:1034D00043078DE895E0909342078093410785E983
:1034E00091E09093400780933F0781E090E09093B4
:1034F000100480930F041092310410923004109243
:103500001A0410921B0410921C0410921D041092B5
:103510001E0410921F041092200410922104109295
:1035200022041092230410922404109225049093F4
:1035300027048093260410922804109229041092E4
:103540002A0410922B0410922D0410922C048091C6
:10355000E1079091E207A091E307B091E40780357D
:103560009341A105B105B8F08FEF93E0A0E0B0E082
:1035700089839A83AB83BC83C12CD12CE12CF12CA1
:1035800000E010E024E030E0AE014F5F5F4F65E007
:1035900085E00E94EE1161E084E00E94062D61E06A
:1035A00085E00E94062D61E086E00E94062D84E001
:1035B0000E948A1585E00E948A1586E00E948A157D
:1035C00061E081E00E94062D61E082E00E94062D0C
:1035D00061E083E00E94062D81E00E948A1582E06E
:1035E0000E948A15DACEAE014F5F5F4F60E07AE14C
:1035F00080E090E00E945822B82E811178CE898117
:103600009A81AB81BC819C01AD01416029833A83E1
:103610004B835C8360E07AE180E090E00E94BA2313
:10362000B82E65CE1FA218A619A61AA6A7016CEA85
:1036300077E082E090E00E945822B82E8FA198A5F2
:10364000A9A5BAA5833C914CAD45B74D41F4A7015E
:1036500068E470E180E090E00E945822B82E8FA1CB
:1036600098A5A9A5BAA5AD016627772758879A011D
:1036700054E0369527955A95E1F72F7029874F70BA
:103680004A879D839C0164E0369527956A95E1F70A
:103690002F702E838F708F830E94722B8D8190E00C
:1036A000982F88272F812F70FC01E22B9F018E819C
:1036B000F0E18F9FC00111249927822B932BAC013D
:1036C00060E070E04093E1075093E2076093E30706
:1036D0007093E407288530E0322F22274A854F7007
:1036E000242B498560E1469FA00111245527242BF6
:1036F000352B2335334110F023EFB22E8235934121
:1037000008F03DCE83EFB82ECCCECF92DF92EF9271
:10371000FF920F93CF93DF93C82E082E000CDD0885
:1037200090E38902E0011124C651DB4F8C8D9D8D01
:10373000892B51F480E490E00E94EA359D8F8C8FB4
:103740009F8F8E8F19A218A280E38C9DF0018D9D12
:10375000F00D1124E651FB4F808591857C01813469
:1037600091051CF020E4E22EF12C01E08E159F055E
:1037700009F000E080E38C9DE0018D9DD00D1124C7
:10378000C651DB4F4C8D5D8D6C817D818E819F811B
:1037900097010E945C2D811120C08C8D9D8D9F8F83
:1037A0008E8FF9A2E8A2C7010F2C000CAA0BBB0B4D
:1037B0004C815D816E817F81840F951FA61FB71F8D
:1037C0008C839D83AE83BF83888599858E199F09DD
:1037D0009987888781E090E002C080E090E0DF91E7
:1037E000CF910F91FF90EF90DF90CF900895FC0163
:1037F000538D448D252F30E0842F90E0821B930B56
:10380000541710F0CF96089501970895FC01918DFB
:10381000828D981761F0828DDF01A80FB11D5D9632
:103820008C91928D9F5F9F73928F90E008958FEFA0
:103830009FEF0895FC01918D828D981731F0828D54
:10384000E80FF11D858D90E008958FEF9FEF0895AB
:10385000FC01918D228D892F90E0805C9F4F821B0F
:1038600091098F739927089580E090E0892B29F0C2
:103870000E940C2481110C94000008953FB7F89425
:103880008091EF079091F007A091F107B091F207B6
:1038900026B5A89B05C02F3F19F00196A11DB11DAB
:1038A0003FBFBA2FA92F982F8827820F911DA11DE6
:1038B000B11DBC01CD0142E0660F771F881F991F23
:1038C0004A95D1F7089508950E94D1370C94823615
:1038D0004F925F926F927F928F929F92AF92BF9220
:1038E000CF92DF92EF92FF920F931F93CF93DF93CC
:1038F000CDB7DEB7C455D1090FB6F894DEBF0FBE01
:10390000CDBF5B0169017A01813411F0843501F585
:1039100000E024E030E0AE014F5F5F4FC701B60129
:103920000E945C2D8111F4C18A8126968FAF269763
:103930008091410790914207892B09F4E9C1E091F8
:103940004107F0914207AE014B5B5F4F61E021C040
:10395000823411F500E024E030E0AE014F5F5F4FAC
:10396000C701B6010E945C2D8111D2C18A812696C1
:103970008FAF26978091410790914207892B09F4D8
:10398000C7C1E0914107F0914207AE014B5B5F4F29
:1039900062E089810995BCC1833409F081C000E0EF
:1039A0002CE030E0AE014B5B5F4FC701B6010E94D7
:1039B0005C2D8111ADC12F968FAD2F9787FD48C02B
:1039C000482F082E000C550B2E962FAD2E973BE05E
:1039D0002303F0011124EB5BF84F9185349FF00134
:1039E000359FF00D1124EB5BF84F918791E09087A4
:1039F00061962EAD3FAD61972850310937832683FC
:103A000020914307309144072F5F3F4F3093440785
:103A1000209343072091430730914407232B51F40F
:103A200020914307309144072F5F3F4F3093440765
:103A30002093430720914307309144079BE0949FD4
:103A4000F001959FF00D1124EB5BF84F3583248333
:103A5000898382E090E09B838A8329968EAD9FAD17
:103A600029979D838C832D968CAD9DADAEADBFAD5A
:103A70002D978E839F83A887B98780914107909166
:103A80004207892B09F444C1E0914107F0914207B4
:103A9000AE014F5F5F4F64E02E968FAD2E977ACFC9
:103AA000843411F08B3491F500E024E030E0AE0175
:103AB0004F5F5F4FC701B6010E945C2D811128C185
:103AC000898126968FAF26979A8127969FAF279751
:103AD00091110CC02B813C81285031099BE0890257
:103AE000F0011124EB5BF84F3783268320914107C7
:103AF00030914207232B09F40BC1E0914107F0916B
:103B00004207AE014B5B5F4F65E044CF8A3409F555
:103B100000E024E430E0AE014F5F5F4FC701B60123
:103B20000E945C2D8111F4C080913F079091400765
:103B3000892B09F4EDC0E0913F07F09140072596ED
:103B40004CAD5DAD6EAD7FAD2597CE01019609956B
:103B5000DFC0863429F0883429F08D3409F078C02C
:103B600016E001C019E000E020E130E0AE014B5B5F
:103B70005F4FC701B6010E945C2D8111C9C06296DA
:103B80008FAD629765966EAD7FAD65979BE08902BC
:103B9000F0011124EB5BF84F12862F962EAD3FAD4E
:103BA0002F9761964EAD5FAD61972996AEADBFADD3
:103BB0002997BC87AB872D964CAC5DAC6EAC7FACC7
:103BC0002D974D865E866F86788A0480F581E02D7C
:103BD0006E177F07A9F512161306ECF42501612C68
:103BE000712C4901032E000CAA08BB08841495040B
:103BF000A604B70484F491E09093E6073E832D83F6
:103C0000C40ED51EE11CF11CC982DA82EB82FC8253
:103C100018861F8206C03E832D8319821A821B825A
:103C20001C822091410730914207232B09F470C078
:103C3000E0914107F0914207AE014F5F5F4F3EC0F8
:103C400081E1A816B10408F463C00E94810F60C02E
:103C5000853421F0873421F08C3491F517E001C0D0
:103C600018E000E028E030E0AE014F5F5F4FC70191
:103C7000B6010E945C2D81114BC089814D815E810E
:103C80002B813C8127963FAF2EAF27979BE089027F
:103C9000F0011124EB5BF84F248135814217530763
:103CA000B9F52091410730914207232B89F1E0912A
:103CB0004107F0914207AE014B5B5F4F612F6ACE27
:103CC000823531F501E024E130E0AE014F5F5F4F16
:103CD000C701B6010E945C2D81111AC08D819E81A1
:103CE0009093E9078093E8078091E8079091E907AE
:103CF000892B71F0E091E807F091E90729853A8571
:103D00004B855C8569817A818B819C8109890995C4
:103D1000CC5ADF4F0FB6F894DEBF0FBECDBFDF9198
:103D2000CF911F910F91FF90EF90DF90CF90BF90B8
:103D3000AF909F908F907F906F905F904F9008957D
:103D40007F928F929F92AF92BF92CF92DF92EF922B
:103D5000FF920F931F93CF93DF9300D01F92CDB7A5
:103D6000DEB74C018B01742EA12CB12C013080E206
:103D7000180710F4680103C0C12C90E2D92E8AE024
:103D8000E82EF12C61E070E0CE0103960E94772AC4
:103D9000882311F080E02AC08B8182958F708F304C
:103DA00029F081E0E81AF10868F7F4CFEF2891F3E1
:103DB000B601C4018A0D9B1D0E94772A8111EACFAA
:103DC000772039F0AC0CBD1C0C191D0979F681E087
:103DD0000DC08091DB078111F5CF62E070E0CE016C
:103DE00001960E94772A882369F3D4CF0F900F9011
:103DF0000F90DF91CF911F910F91FF90EF90DF9087
:103E0000CF90BF90AF909F908F907F900895FC01CE
:103E1000848DDF01A80FB11DA35ABF4F2C91848D53
:103E200090E001968F739927848FA689B7892C9388
:103E3000A089B1898C91837080648C93938D848DDB
:103E4000981306C00288F389E02D80818F7D8083DE
:103E50000895EF92FF920F931F93CF93DF93EC019E
:103E600081E0888F9B8D8C8D981305C0E889F98936
:103E7000808185FD26C0F62E0B8D10E00F5F1F4F51
:103E80000F731127E02E8C8DE8120CC00FB607FCC3
:103E9000FACFE889F989808185FFF5CFCE010E94AC
:103EA000071FF1CF8B8DFE01E80FF11DE35AFF4F85
:103EB000F0829FB7F8940B8FEA89FB89808180623A
:103EC0000AC09FB7F894EE89FF896083E889F98971
:103ED00080818370806480839FBF81E090E0DF9168
:103EE000CF911F910F91FF90EF900895CF93DF93A3
:103EF000EC01888D8823C9F0EA89FB89808185FDE2
:103F000005C0A889B9898C9186FD0FC00FB607FC42
:103F1000F5CF808185FFF2CFA889B9898C9185FF83
:103F2000EDCFCE010E94071FE7CFDF91CF9108951B
:103F300090E0FC01E056FF4F2491FC01E254FF4F5A
:103F40003491FC01EE52FF4FE491EE2309F43CC0A2
:103F5000222339F1233091F038F42130A9F02230B6
:103F600001F584B58F7D12C0273091F02830A1F083
:103F70002430B9F4809180008F7D03C0809180004F
:103F80008F77809380000DC084B58F7784BD09C082
:103F90008091B0008F7703C08091B0008F7D8093B7
:103FA000B000F0E0EE0FFF1FEA51FF4FA591B49172
:103FB0009FB7F894611104C08C913095382302C0EA
:103FC000EC913E2B3C939FBF0895CF93DF9390E0FD
:103FD000FC01E254FF4F2491FC01EE52FF4F84910B
:103FE000882361F190E0880F991FFC01EC54FF4F8A
:103FF000C591D491FC01EA51FF4FA591B491611193
:1040000009C09FB7F8948881209582238883EC911A
:104010002E230BC0623061F49FB7F8948881322F51
:10402000309583238883EC912E2B2C939FBF06C061
:104030008FB7F894E8812E2B28838FBFDF91CF9123
:1040400008958F929F92AF92BF92CF92DF92EF929C
:10405000FF926B017C010E943E1C4B015C01C1146C
:10406000D104E104F104F1F00E943E1CDC01CB011B
:1040700088199909AA09BB09883E9340A105B10591
:1040800070F321E0C21AD108E108F10888EE880E29
:1040900083E0981EA11CB11CC114D104E104F104F9
:1040A00019F7DDCFFF90EF90DF90CF90BF90AF90EA
:1040B0009F908F9008952FB7F8946091EB077091BF
:1040C000EC078091ED079091EE072FBF08951F92A6
:1040D0000F920FB60F9211242F933F938F939F93BC
:1040E000AF93BF938091EB079091EC07A091ED0700
:1040F000B091EE073091EA0723E0230F2D3720F42B
:104100000196A11DB11D05C026E8230F0296A11D31
:10411000B11D2093EA078093EB079093EC07A093DF
:10412000ED07B093EE078091EF079091F007A09113
:10413000F107B091F2070196A11DB11D8093EF0721
:104140009093F007A093F107B093F207BF91AF915E
:104150009F918F913F912F910F900FBE0F901F90C5
:1041600018951F920F920FB60F9211242F933F9321
:104170004F935F936F937F938F939F93AF93BF936F
:10418000EF93FF93E0910201F09103010995FF91F4
:10419000EF91BF91AF919F918F917F916F915F91BF
:1041A0004F913F912F910F900FBE0F901F90189538
:1041B0001F920F920FB60F9211242F933F934F939C
:1041C0005F936F937F938F939F93AF93BF93EF937F
:1041D000FF93E0910001F09101010995FF91EF91AA
:1041E000BF91AF919F918F917F916F915F914F910F
:1041F0003F912F910F900FBE0F901F901895823016
:10420000E8F4E82FF0E0EE0FFF1FE050FF4F71835E
:104210006083813041F0809169008C7F482B40930E
:104220006900E89A089580916900837F440F551FC3
:10423000440F551F482B40936900E99A08959FB792
:10424000F8948091DA07882319F081508093DA0777
:104250008091DA07811105C08CB58F7B8CBD1092DF
:10426000E7079FBF089508952F923F924F925F9264
:104270006F927F928F929F92AF92BF92CF92DF9276
:10428000EF92FF920F931F93CF93DF9300D000D054
:10429000CDB7DEB71B012C013A0149018AE08B83BF
:1042A0001C82E1E08E16910429F4F1E0FC8382E0A7
:1042B000882E912C6401E12CF12CA12C00E010E05F
:1042C0009801B201A10188EC0E94DB29B82E81E09F
:1042D000B8121CC088EC0E947D2AB82EE1E08E1333
:1042E00015C0FC8140E0B401FF2349F0CE010196E6
:1042F0000E94A01EB82E8981F301808304C0C301EF
:104300000E94A01EB82EF1E0BF1609F161E070E036
:1043100080E090E00E942811A12CC12CD12C7601C4
:1043200000E010E0980140E050E0BA018FEC0E94FC
:10433000DB298FEC0E947D2A61E070E080E090E054
:104340000E9428118B8181508B838111AACF8B2DE4
:104350000F900F900F900F90DF91CF911F910F91C1
:10436000FF90EF90DF90CF90BF90AF909F908F9095
:104370007F906F905F904F903F902F9008952F9275
:104380003F924F925F926F927F928F929F92AF92E5
:10439000BF92CF92DF92EF92FF920F931F93CF9332
:1043A000DF9300D000D01F92CDB7DEB71B012C01E8
:1043B0003A018FEF281631044104510409F018F432
:1043C000E4ECED8302C0FAECFD838FEF2816310494
:1043D0004104510409F018F48824839401C0812C0D
:1043E0009AE0992EA82C84E0C82ED12CE12CF12C37
:1043F00000E010E09801B201A1018D810E94DB294B
:10440000B82EE1E08E131CC08D810E947D2AB82E4B
:10441000F1E08F1315C0482D64E070E0CE010196E5
:104420000E94A01EB82E81E0B8120AC089819A812C
:10443000AB81BC81F30180839183A283B3831FC0CE
:1044400061E070E080E090E00E942811A12CC12C76
:10445000D12C760100E010E0980140E050E0BA0174
:104460008FEC0E94DB298FEC0E947D2A61E070E0D6
:1044700080E090E00E9428119A949110B3CF8B2D88
:104480000F900F900F900F900F90DF91CF911F9191
:104490000F91FF90EF90DF90CF90BF90AF909F90E3
:1044A0008F907F906F905F904F903F902F900895E6
:1044B0000E94BF21813011F08AEF089580E00895B5
:1044C0002F923F924F925F926F927F928F929F9224
:1044D000AF92BF92CF92DF92EF92FF920F931F9312
:1044E000CF93DF9300D000D01F92CDB7DEB72B0162
:1044F0003C011A0149018AE08D8381E0881691040C
:1045000019F492E0892E912C6401E12CF12CA12C5C
:1045100000E010E09801B301A20187EC0E94DB29C2
:10452000B82E81E0B8126BC087EC0E947D2AB82EAD
:1045300081E0B81264C01A8219828401E12CF12C46
:104540006801013080E2180718F0C12C80E2D82EF3
:10455000E114F10429F4013080E2180738F404C0B2
:10456000013080E2180720F483E003C081E001C03D
:1045700082E0806F8C8361E070E0CE0104960E943F
:10458000D62981113BC0B601C1018E0D9F1D0E942D
:10459000D629811133C08091DB07882331F0EC0CE0
:1045A000FD1C0C191D0961F609C062E070E0CE0126
:1045B00001960E94D629882391F320C08091DB07C1
:1045C000882311F003E001C002E010E0B801CE0141
:1045D00001960E94772A811111C0FE01E00FF11FA0
:1045E000808181110BC0EFEFFFEFEC0FFD1FE00F9B
:1045F000F11FBB24B3948081833C11F1B12C61E0A5
:1046000070E080E090E00E942811A12CC12CD12CF8
:10461000760100E010E0980140E050E0BA018FEC34
:104620000E94DB298FEC0E947D2A61E070E080E02F
:1046300090E00E9428118D8181508D8381115DCF82
:104640008B2D0F900F900F900F900F90DF91CF91C7
:104650001F910F91FF90EF90DF90CF90BF90AF90A0
:104660009F908F907F906F905F904F903F902F9092
:1046700008954F925F926F927F929F92AF92BF92F6
:10468000CF92DF92EF92FF920F931F93CF93DF931E
:1046900000D000D000D0CDB7DEB72B013C0129837C
:1046A0003A834B835C8381E34816510461047104AF
:1046B00018F423ECB22E02C099ECB92E81E348160F
:1046C00051046104710418F49924939401C0912C4D
:1046D0008AE08E83A92C84E0C82ED12CE12CF12C09
:1046E00009811A812B813C81B301A2018B2D0E948B
:1046F000DB298D83813031F48B2D0E947D2A8D83BF
:10470000813009F161E070E080E090E00E942811C2
:10471000A12CC12CD12C760100E010E0980140E0E2
:1047200050E0BA018FEC0E94DB298FEC0E947D2AB9
:1047300061E070E080E090E00E9428118E8181505D
:104740008E838111C7CF8D8126960FB6F894DEBF78
:104750000FBECDBFDF91CF911F910F91FF90EF90D2
:10476000DF90CF90BF90AF909F907F906F905F90C1
:104770004F9008950E943923813011F08AEF0895F7
:1047800080E008958F929F92AF92BF92CF92DF9276
:10479000EF92FF920F931F93CF93DF937C01EB0176
:1047A0006C0182E0C80ED11C4701E5E08E0E911C21
:1047B00000E010E0F60141916F0150E060E070E030
:1047C0002AE0CE010E948B295C01E881F9810190E9
:1047D000F081E02D6EE2CE0109958A0D9B1D080F38
:1047E000191F8C149D0431F7F701458150E060E0FA
:1047F00070E02AE0CE010E948B29800F911FDF918B
:10480000CF911F910F91FF90EF90DF90CF90BF90CD
:10481000AF909F908F9008958AE293E00E94281CA9
:1048200021E0892B09F420E0822F0895611571059C
:1048300079F0FB0101900020E9F73197AF01461BA9
:10484000570BDC01ED91FC910280F381E02D09947E
:1048500080E090E008951F920F920FB60F921124FE
:104860002F933F934F935F936F937F938F939F9378
:10487000AF93BF93EF93FF938AE293E00E94071FE9
:10488000FF91EF91BF91AF919F918F917F916F9128
:104890005F914F913F912F910F900FBE0F901F90FE
:1048A00018951F920F920FB60F9211242F938F938A
:1048B0009F93EF93FF93E0913A03F0913B03808144
:1048C000E0914003F091410382FD12C090818091FC
:1048D00043038F5F8F7320914403821751F0E0915F
:1048E0004303F0E0E65DFC4F958F8093430301C0E6
:1048F0008081FF91EF919F918F912F910F900FBE2B
:104900000F901F901895CF92DF92EF92FF920F9326
:104910001F93CF93DF936C017A018B01C0E0D0E04D
:10492000CE15DF0581F0D8016D918D01D601ED9195
:10493000FC910190F081E02DC6010995892B11F0C1
:104940002196EECF7E01C701DF91CF911F910F918C
:10495000FF90EF90DF90CF900895AF92BF92CF92EB
:10496000DF92EF92FF920F931F93CF93DF9300D0CC
:1049700000D0CDB7DEB7182F0E94B00FA12E012EA8
:10498000000CBB0880E31802F0011124E651FB4F34
:104990008281833011F0853089F480E38A9DF001B3
:1049A0008B9DF00D1124E651FB4F808591851816E3
:1049B000190624F4118610860E94810F80E38A9DD7
:1049C000F0018B9DF00D1124E651FB4F12828FEF09
:1049D0008383848D958D009711F00E94823620E3A9
:1049E0002A9DC0012B9D900D1124FC01E651FB4F27
:1049F000158E148E178E168E11A210A21186108697
:104A0000FC01E45FFA4F20E1DF011D922A95E9F7EE
:104A100017FD39C08BE08A9DF0018B9DF00D1124AC
:104A2000EB5BF84F8085813071F519838481958126
:104A30009C838B83108615821482818580FF02C03F
:104A40006EE401C069E4C12CD12CE12CF12C00E012
:104A500010E024E030E0AE014F5F5F4F82E00E9443
:104A6000EE11811187EF9BE09A9DF0019B9DF00D67
:104A70001124EB5BF84F9F01255F3F4F11922E17DA
:104A80003F07E1F701C08AEF0F900F900F900F9052
:104A9000DF91CF911F910F91FF90EF90DF90CF901A
:104AA000BF90AF9008958F929F92AF92BF92CF9296
:104AB000DF92EF92FF920F931F93CF93DF93CDB7C7
:104AC000DEB7C756D1400FB6F894DEBF0FBECDBFDC
:104AD00080910F0490911004892B11F40E94AB1760
:104AE0008091260490912704892BC1F010921A041A
:104AF00010921B0410921C0410921D0410921E04AC
:104B000010921F041092200410922104109222048B
:104B1000109223041092240410922504C12CD12C4D
:104B2000E12CF12C00E010E020E030E040E050E02B
:104B300069E281E00E94EE1187FF07C084E090E007
:104B4000909331048093300457C010923104109236
:104B5000300481E090E090932F0480932E040E9413
:104B60005B204B015C010E945B20DC01CB018819BA
:104B70009909AA09BB090091760410917704209144
:104B800078043091790480179107A207B307A0F049
:104B900081E2E5E5F4E0DF011D928A95E9F7809175
:104BA00030049091310483709927892B81F41092FD
:104BB0002F0410922E041BC00E94B00F809130046D
:104BC0009091310487709927892B69F2E1CFC12C2C
:104BD000D12CE12CF12C00E010E020E030E040E0AE
:104BE00050E065E081E00E94EE110E94B00F8091DC
:104BF0003004833009F415C1CE018E599E4F0E94B6
:104C00005A2CFE0131964F01CF010E945A2CFE0111
:104C10003796DE01AE59BE4F82918D93E815F905A6
:104C2000D9F7CE59DE4F8881C256D1401F928F935B
:104C3000CD59DE4F8881C356D1401F928F938BE0B0
:104C400093E09F938F935E01FBEAAF1AFEEFBF0ADA
:104C5000BF92AF920E9416380FB6F894DEBF0FBE17
:104C6000CDBF80910F0490911004892B11F40E9404
:104C7000AB178E0103531F4F88E8D8011D928A9508
:104C8000E9F7B501C8010E94DF37FF24F394F8016A
:104C9000F1A2F7AEC35FDE4F1882CD50D14080EC59
:104CA000C25FDE4F8883CE50D14088EAC15FDE4FBD
:104CB0008883CF50D140C05FDE4FF882C051D140D1
:104CC000CF5EDE4FF882C151D140C8010E949C0ED8
:104CD0000197809770F428E830E040E050E0B80198
:104CE000C4010E94910E8CE193E00E949C0E892BDE
:104CF00039F48BE090E0909331048093300491C0BC
:104D000020E430E040E050E06CE173E0CE018757F2
:104D10009F4F0E94910EC753DF4FF882C95CD0406D
:104D20001092DC078091E1079091E207A091E307E0
:104D3000B091E40780359341A105B10508F091C019
:104D40008AA181508AA320E430E040E050E06CE189
:104D500073E0CE01875B9F4F0E94910EC757DF4FD4
:104D6000F882C958D0402AE830E0C12CD12CE12C7F
:104D7000F12C00E010E0A40168E881E00E94EE114F
:104D800087FDB7CF8AE090E09093310480933004A0
:104D900082E090E090932F0480932E0481E2E5E579
:104DA000F4E0DF011D928A95E9F7F50101900020FA
:104DB000E9F73197AF014A195B09B50185E594E040
:104DC0000E94D63724E030E040E050E0BE01625F50
:104DD0007E4F8AE194E00E94910E8FEF9FEFAFEF3C
:104DE000B0E080931E0490931F04A0932004B0931E
:104DF000210480911A0490911B04A0911C04B0918D
:104E00001D048093220490932304A0932404B09360
:104E1000250460E084E00E94062D60E081E00E94AD
:104E2000062D80910F0490911004892B11F40E949B
:104E3000AB170E94B00F80913004C959DE4F0FB6F6
:104E4000F894DEBF0FBECDBFDF91CF911F910F91C0
:104E5000FF90EF90DF90CF90BF90AF909F908F909A
:104E600008952CEC30E081CFCF93C82F0E94B00F73
:104E70002C2F0C2E000C330B80E3C802F001112400
:104E8000E651FB4F8281833011F0853079F480E365
:104E9000829FF001839FF00D1124E651FB4F20A16A
:104EA00031A180859185820F931F02C080E090E040
:104EB000CF910895CF92DF92EF92FF920F931F93BD
:104EC000CF93DF93CDB7DEB728970FB6F894DEBF48
:104ED0000FBECDBF87FD43C0282F082E000C330B1B
:104EE0009BE08902F0011124EB5BF84F9085913033
:104EF000B1F511821082138212824285411132C0B3
:104F00009287918590FF02C06DE401C066E4CC24D5
:104F1000CA94DC2C7601C982DA82EB82FC828D8312
:104F20008BE0829FF001839FF00D1124EB5BF84F23
:104F30008481958198878F83C12CD12CE12CF12C11
:104F400000E010E028E030E0AE014F5F5F4F82E00C
:104F50000E94EE11882331F082EF9FEF05C08AEFA7
:104F60009FEF02C080E090E028960FB6F894DEBF75
:104F70000FBECDBFDF91CF911F910F91FF90EF90AA
:104F8000DF90CF9008956F927F928F929F92AF9211
:104F9000BF92CF92DF92EF92FF920F931F93CF9326
:104FA000DF93CDB7DEB76C970FB6F894DEBF0FBEB8
:104FB000CDBF5C0182E090E09A8389835427452726
:104FC00054275C834B83FB0182819381A481B5814B
:104FD0008D839E83AF83B887D501ED91FC910688C0
:104FE000F789E02DC5010995882341F0D501ED91A0
:104FF000FC910488F589E02DC501099547E007E09B
:1050000010E02BE0F22E9090FA072091FA0730E0A2
:105010008091FA0790E00196B8010E943E35809396
:10502000FA07F29EF001F39EF00D1124EB5BF84FAE
:105030008085811106C0892D97FCDBC0CF010B96BE
:1050400004C0415001F78FEFD4C011928E179F0713
:10505000E1F78BE0829FF001839FF00D1124EB5B61
:10506000F84F81E080878091430790914407019633
:10507000909344078093430780914307909144079E
:10508000892B49F4809143079091440701969093AE
:1050900044078093430740914307509144078BE0B6
:1050A000829FF001839FF00D1124EB5BF84F558335
:1050B0004483692C092C000C7708B92D20E3B20237
:1050C000F0011124E651FB4F91E092839FEF93830F
:1050D000D5011C969C92869DF001879DF00D1124B0
:1050E000EB5BF84F8085813009F07AC0818580FFC5
:1050F00005C081858A8F9BE4892E02C084E4882EB6
:10510000998E28E030E040E050E0BE016F5F7F4FB5
:10511000CE0141960E94910E8BE0869DF001879D05
:10512000F00D1124EB5BF84F848195819C8F8B8F60
:10513000C12CD12CE12CF12C00E010E02CE030E06F
:10514000AE014F5E5F4F682D82E00E94EE1181112B
:1051500047C080E3869D8001879D100D1124065174
:105160001B4F82E0F80182830E945B206B017C016F
:105170000E5F1F4FD8018C91823081F40E945B201A
:10518000DC01CB018C199D09AE09BF0980329E4418
:10519000A105B10518F40E94B00FECCF80E3869D05
:1051A000F001879DF00D1124E651FB4F8281833081
:1051B00019F081E0828314C0118610868B819C8156
:1051C000978786878D819E81AF81B885808B918BF3
:1051D000A28BB38B892D0E945A2781E090E00EC0EC
:1051E000D5011C968C910E94AD248FEFF501848728
:1051F00003C0D5011C968C9380E090E06C960FB6AE
:10520000F894DEBF0FBECDBFDF91CF911F910F91FC
:10521000FF90EF90DF90CF90BF90AF909F908F90D6
:105220007F906F9008950F931F93CF93DF93EC01BE
:1052300088819981009729F02A813B8126173707B9
:1052400088F48B016F5F7F4F0E940B37009761F0EE
:10525000998388831B830A832C813D81232B11F43E
:10526000FC01108281E001C080E0DF91CF911F91AD
:105270000F910895EF92FF920F931F93CF93DF93B7
:10528000EC017B018A01BA010E941329288139812E
:1052900081110DC02115310519F0C9010E94823616
:1052A000198218821D821C821B821A8206C01D83ED
:1052B0000C83B701C9010E94DF37CE01DF91CF9186
:1052C0001F910F91FF90EF900895CF93DF93EC0122
:1052D0006115710559F0FB0101900020E9F7319744
:1052E000AF01461B570B0E943A290CC08881998157
:1052F000009711F00E948236198218821D821C824A
:105300001B821A82CE01DF91CF910895FC0180812A
:1053100091810C9482368F929F92AF92BF92EF92BE
:10532000FF920F931F93CF93DF93CDB7DEB7A19773
:105330000FB6F894DEBF0FBECDBF7C01FA01CB01E2
:1053400019A2223008F42AE08E010F5D1F4F822E31
:10535000912CA12CB12CBF01A50194010E945235C2
:10536000F901CA01015011096A3014F4605D01C0ED
:10537000695CD8016C93232B242B252B61F7B80192
:10538000C7010E941624A1960FB6F894DEBF0FBE87
:10539000CDBFDF91CF911F910F91FF90EF90BF9004
:1053A000AF909F908F9008950C941624AB0160E00D
:1053B00070E00C94A50EAF92CF92DF92EF92FF9225
:1053C0000F931F93CF93DF93CDB7DEB729970FB617
:1053D000F894DEBF0FBECDBF898390E0FC01E15C95
:1053E000F109EF30F10508F050C0E45CFF4F0C9478
:1053F000E4356A835B834C8311C0BB27A72F962FAC
:10540000852FA11080688A834B831C8207C01A8273
:105410001B82FBCF8FEF8A838B838C8365E037C041
:105420006A835B834C83DD82CE8267E030C06A830F
:105430005B834C83ED82DE82CF820CC0BB27A72F1B
:10544000962F852FA11080688A834B833C832D8300
:105450001E830F8368E01BC06A835B834C833D839C
:105460002E831F83088769E012C0A1E0B0E0AC0F73
:10547000BD1FA80FB91FEE0FEC9370E0CE0101968F
:105480000E94D62991E0882309F190E01FC0809105
:10549000DB07811119C0862F90E001978C01092E3E
:1054A000000C220B330BDE011196EFE701501109BE
:1054B00021093109D0F24D91F0E0EE0FFF1FE427F2
:1054C000E55FFE4FE491F2CF6150D7CF892F299647
:1054D0000FB6F894DEBF0FBECDBFDF91CF911F9105
:1054E0000F91FF90EF90DF90CF90AF900895AB01B8
:1054F000BC0180E090E00C94A50E0F931F93CF9316
:10550000DF931F92CDB7DEB7082F8F3C31F08BE3CE
:10551000800F823010F01BE00FC061E070E0CE0120
:1055200001960E94772A8823B1F380E01DC089810B
:10553000081759F0115049F061E070E0CE01019672
:105540000E94772A882399F3F0CF1BE061E070E096
:10555000CE0101960E94772A8111E7CF89818823A5
:1055600011F0115099F781E00F90DF91CF911F91C9
:105570000F9108954F925F926F927F928F929F92B8
:10558000AF92BF92CF92DF92EF92FF920F931F9351
:10559000CF93DF932B013C01EA01480159018A01B5
:1055A000C12CD12C7601C701B601640D751D861D75
:1055B000971D29EF82169104A104B10460F4AE0195
:1055C0004C0D5D1D94010E946022813011F08AEF24
:1055D0001BC080E019C028EF30E0A8010E946022C3
:1055E000813011F08AEF01C080E008501F4F811117
:1055F0000BC088EF881A9108A108B10828EFC20EE5
:10560000D11CE11CF11CCFCFDF91CF911F910F91E5
:10561000FF90EF90DF90CF90BF90AF909F908F90D2
:105620007F906F905F904F9008954F925F926F922E
:105630007F928F929F92AF92BF92CF92DF92EF9222
:10564000FF920F931F93CF93DF932B013C01EA014D
:10565000480159018A01C12CD12C7601C701B6013C
:10566000640D751D861D971D29EF82169104A104F6
:10567000B10460F4AE014C0D5D1D94010E94342113
:10568000813011F08AEF1BC080E019C028EF30E0B4
:10569000A8010E943421813011F08AEF01C080E01E
:1056A00008501F4F81110BC088EF881A9108A1087C
:1056B000B10828EFC20ED11CE11CF11CCFCFDF9145
:1056C000CF911F910F91FF90EF90DF90CF90BF90FF
:1056D000AF909F908F907F906F905F904F900895C4
:1056E0000C94BA23CF92DF92EF92FF92CF93DF9385
:1056F00000D000D0CDB7DEB7C090FC07D090FD073A
:10570000E090FE07F090FF07C114D104E104F1041A
:1057100009F081C04CEF57E060E070E180E090E07C
:105720000E945822882349F01092FC071092FD072E
:105730001092FE071092FF0776C0AE014F5F5F4FD9
:1057400064EF73E180E090E00E9458228111ECCF79
:105750008091FC079091FD07A091FE07B091FF0793
:10576000803A22E0920720E1A207B10569F489811D
:105770009A81AB81BC810197A105B105D1F181EA84
:1057800092E0A0E1B0E01DC0803B22E0920720E162
:10579000A207B105F9F489819A81AB81BC8183307C
:1057A0009105A105B10529F10497A105B10529F4D9
:1057B00081EB92E0A0E1B0E004C082EB92E0A0E1D6
:1057C000B0E08093FC079093FD07A093FE07B09391
:1057D000FF070FC0803F9105A041B10551F44CEF88
:1057E00057E060E070E08BE390E00E945822811166
:1057F0009BCF8091FC079091FD07A091FE07B0918F
:10580000FF07A07FA5608093FC079093FD07A093FE
:10581000FE07B093FF07C090FC07D090FD07E09013
:10582000FE07F090FF07C701B6010F900F900F9091
:105830000F90DF91CF91FF90EF90DF90CF90089580
:10584000CF92DF92EF92FF92CF93DF9300D000D000
:10585000CDB7DEB76B017C016894D0F8A701960143
:1058600060EA74E180E090E00E94702B19821A8255
:105870001B821C82AE014F5F5F4F60EA74E180E0E3
:1058800090E00E9458228111E9CF89819A81AB81F1
:10589000BC81C816D906EA06FB0601F780E00F9026
:1058A0000F900F900F90DF91CF91FF90EF90DF90CE
:1058B000CF900895CF92DF92EF92FF920F931F93B4
:1058C000CF93DF93CDB7DEB762970FB6F894DEBF04
:1058D0000FBECDBF7C010E944411182F811164C0FE
:1058E000CE0101966C0188E0F60111928A95E9F7E4
:1058F000AE01415F5F4F68E070E08CE090E00E9495
:105900005822182F81114BC08F859889A989BA898F
:105910000097A105B105B1F0BC01CD01836008E09D
:1059200010E020E030E0A6010E94152B182F811115
:1059300036C089819A81AB81BC818F87988BA98B76
:10594000BA8B0CC0AE01415F5F4F6CE974E180E03F
:1059500090E00E945822182F811121C08F859889CC
:10596000A989BA89AA27BB278F87988BA98BBA8B5D
:10597000BC01CD01836006E010E020E030E0AE0124
:10598000475F5F4F0E94152B182F26E030E040E064
:1059900050E0BE01675F7F4FC7010E94910E111159
:1059A00003C00E94220E182F812F62960FB6F89422
:1059B000DEBF0FBECDBFDF91CF911F910F91FF9042
:1059C000EF90DF90CF900895873080F4843081F09D
:1059D000853081F0863081F0882381F0813081F03C
:1059E000823081F0833081F08EEF08958FEF08953B
:1059F0008FE0089580E1089582E1089583E008959D
:105A000084E0089585E0089586E008950F931F933C
:105A1000CF93DF9300D000D0CDB7DEB7182F062F7D
:105A20000E94441181113FC0812F0E94E42C182F45
:105A300087FD37C0AE014F5F5F4F60E071E082E0ED
:105A400090E00E94582281112CC089819A81AB81FB
:105A5000BC8141E050E060E070E004C0440F551F9D
:105A6000661F771F1A95D2F7002329F0842B952BF8
:105A7000A62BB72B08C04095509560957095842350
:105A80009523A623B72389839A83AB83BC8329817B
:105A90003A814B815C8160E071E082E090E00E949D
:105AA000BA230E94220E0F900F900F900F90DF915B
:105AB000CF911F910F9108954F925F926F927F92B5
:105AC0008F929F92AF92BF92CF92DF92EF92FF920E
:105AD0000F931F93CF93C02F611571058105910519
